{
  "contractName": "AliToken",
  "abi": [
    {
      "inputs": [
        {
          "internalType": "uint256",
          "name": "_initialsupply",
          "type": "uint256"
        }
      ],
      "stateMutability": "nonpayable",
      "type": "constructor"
    },
    {
      "anonymous": false,
      "inputs": [
        {
          "indexed": true,
          "internalType": "address",
          "name": "owner",
          "type": "address"
        },
        {
          "indexed": true,
          "internalType": "address",
          "name": "spender",
          "type": "address"
        },
        {
          "indexed": false,
          "internalType": "uint256",
          "name": "value",
          "type": "uint256"
        }
      ],
      "name": "Approval",
      "type": "event"
    },
    {
      "anonymous": false,
      "inputs": [
        {
          "indexed": true,
          "internalType": "address",
          "name": "_buyer",
          "type": "address"
        },
        {
          "indexed": false,
          "internalType": "uint256",
          "name": "tokensBought",
          "type": "uint256"
        },
        {
          "indexed": false,
          "internalType": "uint256",
          "name": "Cost",
          "type": "uint256"
        }
      ],
      "name": "TokenPurchase",
      "type": "event"
    },
    {
      "anonymous": false,
      "inputs": [
        {
          "indexed": true,
          "internalType": "address",
          "name": "from",
          "type": "address"
        },
        {
          "indexed": true,
          "internalType": "address",
          "name": "to",
          "type": "address"
        },
        {
          "indexed": false,
          "internalType": "uint256",
          "name": "value",
          "type": "uint256"
        }
      ],
      "name": "Transfer",
      "type": "event"
    },
    {
      "inputs": [
        {
          "internalType": "address",
          "name": "owner",
          "type": "address"
        },
        {
          "internalType": "address",
          "name": "spender",
          "type": "address"
        }
      ],
      "name": "allowance",
      "outputs": [
        {
          "internalType": "uint256",
          "name": "",
          "type": "uint256"
        }
      ],
      "stateMutability": "view",
      "type": "function",
      "constant": true
    },
    {
      "inputs": [
        {
          "internalType": "address",
          "name": "spender",
          "type": "address"
        },
        {
          "internalType": "uint256",
          "name": "amount",
          "type": "uint256"
        }
      ],
      "name": "approve",
      "outputs": [
        {
          "internalType": "bool",
          "name": "",
          "type": "bool"
        }
      ],
      "stateMutability": "nonpayable",
      "type": "function"
    },
    {
      "inputs": [
        {
          "internalType": "address",
          "name": "account",
          "type": "address"
        }
      ],
      "name": "balanceOf",
      "outputs": [
        {
          "internalType": "uint256",
          "name": "",
          "type": "uint256"
        }
      ],
      "stateMutability": "view",
      "type": "function",
      "constant": true
    },
    {
      "inputs": [],
      "name": "conversionRate",
      "outputs": [
        {
          "internalType": "uint256",
          "name": "",
          "type": "uint256"
        }
      ],
      "stateMutability": "view",
      "type": "function",
      "constant": true
    },
    {
      "inputs": [],
      "name": "decimals",
      "outputs": [
        {
          "internalType": "uint8",
          "name": "",
          "type": "uint8"
        }
      ],
      "stateMutability": "view",
      "type": "function",
      "constant": true
    },
    {
      "inputs": [
        {
          "internalType": "address",
          "name": "spender",
          "type": "address"
        },
        {
          "internalType": "uint256",
          "name": "subtractedValue",
          "type": "uint256"
        }
      ],
      "name": "decreaseAllowance",
      "outputs": [
        {
          "internalType": "bool",
          "name": "",
          "type": "bool"
        }
      ],
      "stateMutability": "nonpayable",
      "type": "function"
    },
    {
      "inputs": [
        {
          "internalType": "address",
          "name": "spender",
          "type": "address"
        },
        {
          "internalType": "uint256",
          "name": "addedValue",
          "type": "uint256"
        }
      ],
      "name": "increaseAllowance",
      "outputs": [
        {
          "internalType": "bool",
          "name": "",
          "type": "bool"
        }
      ],
      "stateMutability": "nonpayable",
      "type": "function"
    },
    {
      "inputs": [],
      "name": "name",
      "outputs": [
        {
          "internalType": "string",
          "name": "",
          "type": "string"
        }
      ],
      "stateMutability": "view",
      "type": "function",
      "constant": true
    },
    {
      "inputs": [],
      "name": "symbol",
      "outputs": [
        {
          "internalType": "string",
          "name": "",
          "type": "string"
        }
      ],
      "stateMutability": "view",
      "type": "function",
      "constant": true
    },
    {
      "inputs": [],
      "name": "totalSupply",
      "outputs": [
        {
          "internalType": "uint256",
          "name": "",
          "type": "uint256"
        }
      ],
      "stateMutability": "view",
      "type": "function",
      "constant": true
    },
    {
      "inputs": [
        {
          "internalType": "address",
          "name": "recipient",
          "type": "address"
        },
        {
          "internalType": "uint256",
          "name": "amount",
          "type": "uint256"
        }
      ],
      "name": "transfer",
      "outputs": [
        {
          "internalType": "bool",
          "name": "",
          "type": "bool"
        }
      ],
      "stateMutability": "nonpayable",
      "type": "function"
    },
    {
      "inputs": [
        {
          "internalType": "address",
          "name": "sender",
          "type": "address"
        },
        {
          "internalType": "address",
          "name": "recipient",
          "type": "address"
        },
        {
          "internalType": "uint256",
          "name": "amount",
          "type": "uint256"
        }
      ],
      "name": "transferFrom",
      "outputs": [
        {
          "internalType": "bool",
          "name": "",
          "type": "bool"
        }
      ],
      "stateMutability": "nonpayable",
      "type": "function"
    },
    {
      "inputs": [
        {
          "internalType": "uint256",
          "name": "cost",
          "type": "uint256"
        }
      ],
      "name": "getQuote",
      "outputs": [
        {
          "internalType": "uint256",
          "name": "",
          "type": "uint256"
        }
      ],
      "stateMutability": "view",
      "type": "function",
      "constant": true
    },
    {
      "inputs": [],
      "name": "TopUp",
      "outputs": [],
      "stateMutability": "payable",
      "type": "function",
      "payable": true
    }
  ],
  "bytecode": "0x6080604052600f6005553480156200001657600080fd5b5060405162001e4b38038062001e4b83398181016040528101906200003c91906200033f565b6040518060400160405280600781526020017f416c69436f696e000000000000000000000000000000000000000000000000008152506040518060400160405280600381526020017f41494300000000000000000000000000000000000000000000000000000000008152508160039080519060200190620000c092919062000278565b508060049080519060200190620000d992919062000278565b505050620000ee3082620000f560201b60201c565b506200053c565b600073ffffffffffffffffffffffffffffffffffffffff168273ffffffffffffffffffffffffffffffffffffffff16141562000168576040517f08c379a00000000000000000000000000000000000000000000000000000000081526004016200015f90620003a9565b60405180910390fd5b6200017c600083836200026e60201b60201c565b8060026000828254620001909190620003f9565b92505081905550806000808473ffffffffffffffffffffffffffffffffffffffff1673ffffffffffffffffffffffffffffffffffffffff1681526020019081526020016000206000828254620001e79190620003f9565b925050819055508173ffffffffffffffffffffffffffffffffffffffff16600073ffffffffffffffffffffffffffffffffffffffff167fddf252ad1be2c89b69c2b068fc378daa952ba7f163c4a11628f55a4df523b3ef836040516200024e9190620003cb565b60405180910390a36200026a600083836200027360201b60201c565b5050565b505050565b505050565b828054620002869062000460565b90600052602060002090601f016020900481019282620002aa5760008555620002f6565b82601f10620002c557805160ff1916838001178555620002f6565b82800160010185558215620002f6579182015b82811115620002f5578251825591602001919060010190620002d8565b5b50905062000305919062000309565b5090565b5b80821115620003245760008160009055506001016200030a565b5090565b600081519050620003398162000522565b92915050565b600060208284031215620003585762000357620004f4565b5b6000620003688482850162000328565b91505092915050565b600062000380601f83620003e8565b91506200038d82620004f9565b602082019050919050565b620003a38162000456565b82525050565b60006020820190508181036000830152620003c48162000371565b9050919050565b6000602082019050620003e2600083018462000398565b92915050565b600082825260208201905092915050565b6000620004068262000456565b9150620004138362000456565b9250827fffffffffffffffffffffffffffffffffffffffffffffffffffffffffffffffff038211156200044b576200044a62000496565b5b828201905092915050565b6000819050919050565b600060028204905060018216806200047957607f821691505b6020821081141562000490576200048f620004c5565b5b50919050565b7f4e487b7100000000000000000000000000000000000000000000000000000000600052601160045260246000fd5b7f4e487b7100000000000000000000000000000000000000000000000000000000600052602260045260246000fd5b600080fd5b7f45524332303a206d696e7420746f20746865207a65726f206164647265737300600082015250565b6200052d8162000456565b81146200053957600080fd5b50565b6118ff806200054c6000396000f3fe6080604052600436106100dd5760003560e01c80637ffdf53e1161007f578063a9059cbb11610059578063a9059cbb146102ea578063c886660514610327578063cf39918e14610331578063dd62ed3e1461036e576100dd565b80637ffdf53e1461025757806395d89b4114610282578063a457c2d7146102ad576100dd565b806323b872dd116100bb57806323b872dd14610175578063313ce567146101b257806339509351146101dd57806370a082311461021a576100dd565b806306fdde03146100e2578063095ea7b31461010d57806318160ddd1461014a575b600080fd5b3480156100ee57600080fd5b506100f76103ab565b6040516101049190611225565b60405180910390f35b34801561011957600080fd5b50610134600480360381019061012f9190610fa5565b61043d565b604051610141919061120a565b60405180910390f35b34801561015657600080fd5b5061015f61045b565b60405161016c9190611367565b60405180910390f35b34801561018157600080fd5b5061019c60048036038101906101979190610f52565b610465565b6040516101a9919061120a565b60405180910390f35b3480156101be57600080fd5b506101c761055d565b6040516101d491906113ab565b60405180910390f35b3480156101e957600080fd5b5061020460048036038101906101ff9190610fa5565b610566565b604051610211919061120a565b60405180910390f35b34801561022657600080fd5b50610241600480360381019061023c9190610ee5565b610612565b60405161024e9190611367565b60405180910390f35b34801561026357600080fd5b5061026c61065a565b6040516102799190611367565b60405180910390f35b34801561028e57600080fd5b50610297610660565b6040516102a49190611225565b60405180910390f35b3480156102b957600080fd5b506102d460048036038101906102cf9190610fa5565b6106f2565b6040516102e1919061120a565b60405180910390f35b3480156102f657600080fd5b50610311600480360381019061030c9190610fa5565b6107dd565b60405161031e919061120a565b60405180910390f35b61032f6107fb565b005b34801561033d57600080fd5b5061035860048036038101906103539190610fe5565b6109aa565b6040516103659190611367565b60405180910390f35b34801561037a57600080fd5b5061039560048036038101906103909190610f12565b6109c1565b6040516103a29190611367565b60405180910390f35b6060600380546103ba9061154b565b80601f01602080910402602001604051908101604052809291908181526020018280546103e69061154b565b80156104335780601f1061040857610100808354040283529160200191610433565b820191906000526020600020905b81548152906001019060200180831161041657829003601f168201915b5050505050905090565b600061045161044a610a48565b8484610a50565b6001905092915050565b6000600254905090565b6000610472848484610c1b565b6000600160008673ffffffffffffffffffffffffffffffffffffffff1673ffffffffffffffffffffffffffffffffffffffff16815260200190815260200160002060006104bd610a48565b73ffffffffffffffffffffffffffffffffffffffff1673ffffffffffffffffffffffffffffffffffffffff1681526020019081526020016000205490508281101561053d576040517f08c379a0000000000000000000000000000000000000000000000000000000008152600401610534906112a7565b60405180910390fd5b61055185610549610a48565b858403610a50565b60019150509392505050565b60006012905090565b6000610608610573610a48565b848460016000610581610a48565b73ffffffffffffffffffffffffffffffffffffffff1673ffffffffffffffffffffffffffffffffffffffff16815260200190815260200160002060008873ffffffffffffffffffffffffffffffffffffffff1673ffffffffffffffffffffffffffffffffffffffff1681526020019081526020016000205461060391906113e2565b610a50565b6001905092915050565b60008060008373ffffffffffffffffffffffffffffffffffffffff1673ffffffffffffffffffffffffffffffffffffffff168152602001908152602001600020549050919050565b60055481565b60606004805461066f9061154b565b80601f016020809104026020016040519081016040528092919081815260200182805461069b9061154b565b80156106e85780601f106106bd576101008083540402835291602001916106e8565b820191906000526020600020905b8154815290600101906020018083116106cb57829003601f168201915b5050505050905090565b60008060016000610701610a48565b73ffffffffffffffffffffffffffffffffffffffff1673ffffffffffffffffffffffffffffffffffffffff16815260200190815260200160002060008573ffffffffffffffffffffffffffffffffffffffff1673ffffffffffffffffffffffffffffffffffffffff168152602001908152602001600020549050828110156107be576040517f08c379a00000000000000000000000000000000000000000000000000000000081526004016107b590611347565b60405180910390fd5b6107d26107c9610a48565b85858403610a50565b600191505092915050565b60006107f16107ea610a48565b8484610c1b565b6001905092915050565b600034905060008111610843576040517f08c379a000000000000000000000000000000000000000000000000000000000815260040161083a90611327565b60405180910390fd5b60003073ffffffffffffffffffffffffffffffffffffffff166370a08231306040518263ffffffff1660e01b815260040161087e91906111ef565b60206040518083038186803b15801561089657600080fd5b505afa1580156108aa573d6000803e3d6000fd5b505050506040513d601f19601f820116820180604052508101906108ce9190611012565b90506000600554836108e09190611469565b9050670de0b6b3a7640000826108f69190611469565b8110610937576040517f08c379a000000000000000000000000000000000000000000000000000000000815260040161092e906112c7565b60405180910390fd5b6109553033670de0b6b3a7640000846109509190611438565b610c1b565b3373ffffffffffffffffffffffffffffffffffffffff167fcd60aa75dea3072fbc07ae6d7d856b5dc5f4eee88854f5b4abf7b680ef8bc50f828560405161099d929190611382565b60405180910390a2505050565b6000600554826109ba9190611469565b9050919050565b6000600160008473ffffffffffffffffffffffffffffffffffffffff1673ffffffffffffffffffffffffffffffffffffffff16815260200190815260200160002060008373ffffffffffffffffffffffffffffffffffffffff1673ffffffffffffffffffffffffffffffffffffffff16815260200190815260200160002054905092915050565b600033905090565b600073ffffffffffffffffffffffffffffffffffffffff168373ffffffffffffffffffffffffffffffffffffffff161415610ac0576040517f08c379a0000000000000000000000000000000000000000000000000000000008152600401610ab790611307565b60405180910390fd5b600073ffffffffffffffffffffffffffffffffffffffff168273ffffffffffffffffffffffffffffffffffffffff161415610b30576040517f08c379a0000000000000000000000000000000000000000000000000000000008152600401610b2790611267565b60405180910390fd5b80600160008573ffffffffffffffffffffffffffffffffffffffff1673ffffffffffffffffffffffffffffffffffffffff16815260200190815260200160002060008473ffffffffffffffffffffffffffffffffffffffff1673ffffffffffffffffffffffffffffffffffffffff168152602001908152602001600020819055508173ffffffffffffffffffffffffffffffffffffffff168373ffffffffffffffffffffffffffffffffffffffff167f8c5be1e5ebec7d5bd14f71427d1e84f3dd0314c0f7b2291e5b200ac8c7c3b92583604051610c0e9190611367565b60405180910390a3505050565b600073ffffffffffffffffffffffffffffffffffffffff168373ffffffffffffffffffffffffffffffffffffffff161415610c8b576040517f08c379a0000000000000000000000000000000000000000000000000000000008152600401610c82906112e7565b60405180910390fd5b600073ffffffffffffffffffffffffffffffffffffffff168273ffffffffffffffffffffffffffffffffffffffff161415610cfb576040517f08c379a0000000000000000000000000000000000000000000000000000000008152600401610cf290611247565b60405180910390fd5b610d06838383610e9c565b60008060008573ffffffffffffffffffffffffffffffffffffffff1673ffffffffffffffffffffffffffffffffffffffff16815260200190815260200160002054905081811015610d8c576040517f08c379a0000000000000000000000000000000000000000000000000000000008152600401610d8390611287565b60405180910390fd5b8181036000808673ffffffffffffffffffffffffffffffffffffffff1673ffffffffffffffffffffffffffffffffffffffff16815260200190815260200160002081905550816000808573ffffffffffffffffffffffffffffffffffffffff1673ffffffffffffffffffffffffffffffffffffffff1681526020019081526020016000206000828254610e1f91906113e2565b925050819055508273ffffffffffffffffffffffffffffffffffffffff168473ffffffffffffffffffffffffffffffffffffffff167fddf252ad1be2c89b69c2b068fc378daa952ba7f163c4a11628f55a4df523b3ef84604051610e839190611367565b60405180910390a3610e96848484610ea1565b50505050565b505050565b505050565b600081359050610eb58161189b565b92915050565b600081359050610eca816118b2565b92915050565b600081519050610edf816118b2565b92915050565b600060208284031215610efb57610efa61160a565b5b6000610f0984828501610ea6565b91505092915050565b60008060408385031215610f2957610f2861160a565b5b6000610f3785828601610ea6565b9250506020610f4885828601610ea6565b9150509250929050565b600080600060608486031215610f6b57610f6a61160a565b5b6000610f7986828701610ea6565b9350506020610f8a86828701610ea6565b9250506040610f9b86828701610ebb565b9150509250925092565b60008060408385031215610fbc57610fbb61160a565b5b6000610fca85828601610ea6565b9250506020610fdb85828601610ebb565b9150509250929050565b600060208284031215610ffb57610ffa61160a565b5b600061100984828501610ebb565b91505092915050565b6000602082840312156110285761102761160a565b5b600061103684828501610ed0565b91505092915050565b611048816114c3565b82525050565b611057816114d5565b82525050565b6000611068826113c6565b61107281856113d1565b9350611082818560208601611518565b61108b8161160f565b840191505092915050565b60006110a36023836113d1565b91506110ae82611620565b604082019050919050565b60006110c66022836113d1565b91506110d18261166f565b604082019050919050565b60006110e96026836113d1565b91506110f4826116be565b604082019050919050565b600061110c6028836113d1565b91506111178261170d565b604082019050919050565b600061112f601b836113d1565b915061113a8261175c565b602082019050919050565b60006111526025836113d1565b915061115d82611785565b604082019050919050565b60006111756024836113d1565b9150611180826117d4565b604082019050919050565b6000611198601b836113d1565b91506111a382611823565b602082019050919050565b60006111bb6025836113d1565b91506111c68261184c565b604082019050919050565b6111da81611501565b82525050565b6111e98161150b565b82525050565b6000602082019050611204600083018461103f565b92915050565b600060208201905061121f600083018461104e565b92915050565b6000602082019050818103600083015261123f818461105d565b905092915050565b6000602082019050818103600083015261126081611096565b9050919050565b60006020820190508181036000830152611280816110b9565b9050919050565b600060208201905081810360008301526112a0816110dc565b9050919050565b600060208201905081810360008301526112c0816110ff565b9050919050565b600060208201905081810360008301526112e081611122565b9050919050565b6000602082019050818103600083015261130081611145565b9050919050565b6000602082019050818103600083015261132081611168565b9050919050565b600060208201905081810360008301526113408161118b565b9050919050565b60006020820190508181036000830152611360816111ae565b9050919050565b600060208201905061137c60008301846111d1565b92915050565b600060408201905061139760008301856111d1565b6113a460208301846111d1565b9392505050565b60006020820190506113c060008301846111e0565b92915050565b600081519050919050565b600082825260208201905092915050565b60006113ed82611501565b91506113f883611501565b9250827fffffffffffffffffffffffffffffffffffffffffffffffffffffffffffffffff0382111561142d5761142c61157d565b5b828201905092915050565b600061144382611501565b915061144e83611501565b92508261145e5761145d6115ac565b5b828204905092915050565b600061147482611501565b915061147f83611501565b9250817fffffffffffffffffffffffffffffffffffffffffffffffffffffffffffffffff04831182151516156114b8576114b761157d565b5b828202905092915050565b60006114ce826114e1565b9050919050565b60008115159050919050565b600073ffffffffffffffffffffffffffffffffffffffff82169050919050565b6000819050919050565b600060ff82169050919050565b60005b8381101561153657808201518184015260208101905061151b565b83811115611545576000848401525b50505050565b6000600282049050600182168061156357607f821691505b60208210811415611577576115766115db565b5b50919050565b7f4e487b7100000000000000000000000000000000000000000000000000000000600052601160045260246000fd5b7f4e487b7100000000000000000000000000000000000000000000000000000000600052601260045260246000fd5b7f4e487b7100000000000000000000000000000000000000000000000000000000600052602260045260246000fd5b600080fd5b6000601f19601f8301169050919050565b7f45524332303a207472616e7366657220746f20746865207a65726f206164647260008201527f6573730000000000000000000000000000000000000000000000000000000000602082015250565b7f45524332303a20617070726f766520746f20746865207a65726f20616464726560008201527f7373000000000000000000000000000000000000000000000000000000000000602082015250565b7f45524332303a207472616e7366657220616d6f756e742065786365656473206260008201527f616c616e63650000000000000000000000000000000000000000000000000000602082015250565b7f45524332303a207472616e7366657220616d6f756e742065786365656473206160008201527f6c6c6f77616e6365000000000000000000000000000000000000000000000000602082015250565b7f4e6f7420656e6f75676820746f6b656e7320617661696c61626c650000000000600082015250565b7f45524332303a207472616e736665722066726f6d20746865207a65726f20616460008201527f6472657373000000000000000000000000000000000000000000000000000000602082015250565b7f45524332303a20617070726f76652066726f6d20746865207a65726f2061646460008201527f7265737300000000000000000000000000000000000000000000000000000000602082015250565b7f596f75206e65656420746f2073656e6420736f6d652065746865720000000000600082015250565b7f45524332303a2064656372656173656420616c6c6f77616e63652062656c6f7760008201527f207a65726f000000000000000000000000000000000000000000000000000000602082015250565b6118a4816114c3565b81146118af57600080fd5b50565b6118bb81611501565b81146118c657600080fd5b5056fea26469706673582212200aae8b02b2e8695919ba498ee1499c29d179db4f03ea1707ce96b8b1ba29f8d164736f6c63430008060033",
  "immutableReferences": {},
  "source": "pragma solidity 0.8.6;\n\nimport \"@openzeppelin/contracts/token/ERC20/ERC20.sol\";\n\ncontract AliToken is ERC20 {\n    uint256 public conversionRate = 15;\n\n    event TokenPurchase(\n        address indexed _buyer,\n        uint256 tokensBought,\n        uint256 Cost\n    );\n\n    constructor(uint256 _initialsupply) ERC20(\"AliCoin\", \"AIC\") {\n        _mint(address(this), _initialsupply);\n    }\n\n    function getQuote(uint256 cost) public view returns (uint256) {\n        return (cost * conversionRate);\n    }\n\n    function TopUp() public payable {\n        uint256 payment = msg.value;\n        require(payment > 0, \"You need to send some ether\");\n        uint256 available = this.balanceOf(address(this));\n        uint256 needed = payment * conversionRate;\n\n        require(needed < (available * 10**18), \"Not enough tokens available\");\n\n        _transfer(address(this), msg.sender, needed / (10**18));\n\n        emit TokenPurchase(msg.sender, needed, payment);\n    }\n}\n\n// payment 1 /15 =\n",
  "sourcePath": "/home/alii/Documents/AliCoin/contracts/AliToken.sol",
  "compiler": {
    "name": "solc",
    "version": "0.8.6+commit.11564f7e.Emscripten.clang"
  },
  "schemaVersion": "3.4.2",
  "updatedAt": "2021-08-11T12:13:08.613Z",
  "networkType": "ethereum",
  "devdoc": {
    "kind": "dev",
    "methods": {
      "allowance(address,address)": {
        "details": "See {IERC20-allowance}."
      },
      "approve(address,uint256)": {
        "details": "See {IERC20-approve}. Requirements: - `spender` cannot be the zero address."
      },
      "balanceOf(address)": {
        "details": "See {IERC20-balanceOf}."
      },
      "decimals()": {
        "details": "Returns the number of decimals used to get its user representation. For example, if `decimals` equals `2`, a balance of `505` tokens should be displayed to a user as `5,05` (`505 / 10 ** 2`). Tokens usually opt for a value of 18, imitating the relationship between Ether and Wei. This is the value {ERC20} uses, unless this function is overridden; NOTE: This information is only used for _display_ purposes: it in no way affects any of the arithmetic of the contract, including {IERC20-balanceOf} and {IERC20-transfer}."
      },
      "decreaseAllowance(address,uint256)": {
        "details": "Atomically decreases the allowance granted to `spender` by the caller. This is an alternative to {approve} that can be used as a mitigation for problems described in {IERC20-approve}. Emits an {Approval} event indicating the updated allowance. Requirements: - `spender` cannot be the zero address. - `spender` must have allowance for the caller of at least `subtractedValue`."
      },
      "increaseAllowance(address,uint256)": {
        "details": "Atomically increases the allowance granted to `spender` by the caller. This is an alternative to {approve} that can be used as a mitigation for problems described in {IERC20-approve}. Emits an {Approval} event indicating the updated allowance. Requirements: - `spender` cannot be the zero address."
      },
      "name()": {
        "details": "Returns the name of the token."
      },
      "symbol()": {
        "details": "Returns the symbol of the token, usually a shorter version of the name."
      },
      "totalSupply()": {
        "details": "See {IERC20-totalSupply}."
      },
      "transfer(address,uint256)": {
        "details": "See {IERC20-transfer}. Requirements: - `recipient` cannot be the zero address. - the caller must have a balance of at least `amount`."
      },
      "transferFrom(address,address,uint256)": {
        "details": "See {IERC20-transferFrom}. Emits an {Approval} event indicating the updated allowance. This is not required by the EIP. See the note at the beginning of {ERC20}. Requirements: - `sender` and `recipient` cannot be the zero address. - `sender` must have a balance of at least `amount`. - the caller must have allowance for ``sender``'s tokens of at least `amount`."
      }
    },
    "version": 1
  },
  "userdoc": {
    "kind": "user",
    "methods": {},
    "version": 1
  }
}